{
  "contractName": "CricketContract",
  "abi": [
    {
      "anonymous": false,
      "inputs": [
        {
          "indexed": true,
          "internalType": "address",
          "name": "owner",
          "type": "address"
        },
        {
          "indexed": true,
          "internalType": "address",
          "name": "approved",
          "type": "address"
        },
        {
          "indexed": true,
          "internalType": "uint256",
          "name": "tokenId",
          "type": "uint256"
        }
      ],
      "name": "Approval",
      "type": "event"
    },
    {
      "anonymous": false,
      "inputs": [
        {
          "indexed": false,
          "internalType": "uint256",
          "name": "cricketId",
          "type": "uint256"
        },
        {
          "indexed": false,
          "internalType": "string",
          "name": "name",
          "type": "string"
        },
        {
          "indexed": false,
          "internalType": "uint256",
          "name": "dna",
          "type": "uint256"
        }
      ],
      "name": "NewCricket",
      "type": "event"
    },
    {
      "anonymous": false,
      "inputs": [
        {
          "indexed": true,
          "internalType": "address",
          "name": "previousOwner",
          "type": "address"
        },
        {
          "indexed": true,
          "internalType": "address",
          "name": "newOwner",
          "type": "address"
        }
      ],
      "name": "OwnershipTransferred",
      "type": "event"
    },
    {
      "anonymous": false,
      "inputs": [
        {
          "indexed": true,
          "internalType": "address",
          "name": "from",
          "type": "address"
        },
        {
          "indexed": true,
          "internalType": "address",
          "name": "to",
          "type": "address"
        },
        {
          "indexed": true,
          "internalType": "uint256",
          "name": "tokenId",
          "type": "uint256"
        }
      ],
      "name": "Transfer",
      "type": "event"
    },
    {
      "constant": true,
      "inputs": [],
      "name": "bettingStake",
      "outputs": [
        {
          "internalType": "uint256",
          "name": "",
          "type": "uint256"
        }
      ],
      "payable": false,
      "stateMutability": "view",
      "type": "function"
    },
    {
      "constant": true,
      "inputs": [
        {
          "internalType": "uint256",
          "name": "",
          "type": "uint256"
        }
      ],
      "name": "bettors",
      "outputs": [
        {
          "internalType": "address",
          "name": "",
          "type": "address"
        }
      ],
      "payable": false,
      "stateMutability": "view",
      "type": "function"
    },
    {
      "constant": true,
      "inputs": [],
      "name": "cricketCount",
      "outputs": [
        {
          "internalType": "uint256",
          "name": "",
          "type": "uint256"
        }
      ],
      "payable": false,
      "stateMutability": "view",
      "type": "function"
    },
    {
      "constant": true,
      "inputs": [],
      "name": "cricketPrice",
      "outputs": [
        {
          "internalType": "uint256",
          "name": "",
          "type": "uint256"
        }
      ],
      "payable": false,
      "stateMutability": "view",
      "type": "function"
    },
    {
      "constant": true,
      "inputs": [
        {
          "internalType": "uint256",
          "name": "",
          "type": "uint256"
        }
      ],
      "name": "cricketToOwner",
      "outputs": [
        {
          "internalType": "address",
          "name": "",
          "type": "address"
        }
      ],
      "payable": false,
      "stateMutability": "view",
      "type": "function"
    },
    {
      "constant": true,
      "inputs": [
        {
          "internalType": "uint256",
          "name": "",
          "type": "uint256"
        }
      ],
      "name": "crickets",
      "outputs": [
        {
          "internalType": "string",
          "name": "name",
          "type": "string"
        },
        {
          "internalType": "uint256",
          "name": "dna",
          "type": "uint256"
        },
        {
          "internalType": "uint16",
          "name": "winCount",
          "type": "uint16"
        },
        {
          "internalType": "uint16",
          "name": "lossCount",
          "type": "uint16"
        },
        {
          "internalType": "uint256",
          "name": "level",
          "type": "uint256"
        }
      ],
      "payable": false,
      "stateMutability": "view",
      "type": "function"
    },
    {
      "constant": true,
      "inputs": [],
      "name": "isOwner",
      "outputs": [
        {
          "internalType": "bool",
          "name": "",
          "type": "bool"
        }
      ],
      "payable": false,
      "stateMutability": "view",
      "type": "function"
    },
    {
      "constant": true,
      "inputs": [],
      "name": "levelUpFee",
      "outputs": [
        {
          "internalType": "uint256",
          "name": "",
          "type": "uint256"
        }
      ],
      "payable": false,
      "stateMutability": "view",
      "type": "function"
    },
    {
      "constant": true,
      "inputs": [],
      "name": "owner",
      "outputs": [
        {
          "internalType": "address",
          "name": "",
          "type": "address"
        }
      ],
      "payable": false,
      "stateMutability": "view",
      "type": "function"
    },
    {
      "constant": false,
      "inputs": [],
      "name": "renounceOwnership",
      "outputs": [],
      "payable": false,
      "stateMutability": "nonpayable",
      "type": "function"
    },
    {
      "constant": true,
      "inputs": [],
      "name": "roundBettorCount",
      "outputs": [
        {
          "internalType": "uint256",
          "name": "",
          "type": "uint256"
        }
      ],
      "payable": false,
      "stateMutability": "view",
      "type": "function"
    },
    {
      "constant": true,
      "inputs": [],
      "name": "roundBettorCount_temp",
      "outputs": [
        {
          "internalType": "uint256",
          "name": "",
          "type": "uint256"
        }
      ],
      "payable": false,
      "stateMutability": "view",
      "type": "function"
    },
    {
      "constant": false,
      "inputs": [
        {
          "internalType": "address",
          "name": "newOwner",
          "type": "address"
        }
      ],
      "name": "transferOwnership",
      "outputs": [],
      "payable": false,
      "stateMutability": "nonpayable",
      "type": "function"
    },
    {
      "constant": true,
      "inputs": [],
      "name": "winningBettorCount",
      "outputs": [
        {
          "internalType": "uint256",
          "name": "",
          "type": "uint256"
        }
      ],
      "payable": false,
      "stateMutability": "view",
      "type": "function"
    },
    {
      "constant": false,
      "inputs": [
        {
          "internalType": "string",
          "name": "name",
          "type": "string"
        }
      ],
      "name": "createRandomCricket",
      "outputs": [],
      "payable": false,
      "stateMutability": "nonpayable",
      "type": "function"
    },
    {
      "constant": false,
      "inputs": [
        {
          "internalType": "string",
          "name": "name",
          "type": "string"
        }
      ],
      "name": "buyRandomCricket",
      "outputs": [],
      "payable": true,
      "stateMutability": "payable",
      "type": "function"
    },
    {
      "constant": false,
      "inputs": [
        {
          "internalType": "uint256",
          "name": "cricketId",
          "type": "uint256"
        }
      ],
      "name": "levelUp",
      "outputs": [],
      "payable": true,
      "stateMutability": "payable",
      "type": "function"
    },
    {
      "constant": false,
      "inputs": [
        {
          "internalType": "uint256",
          "name": "cricketId",
          "type": "uint256"
        },
        {
          "internalType": "string",
          "name": "name",
          "type": "string"
        }
      ],
      "name": "changeName",
      "outputs": [],
      "payable": false,
      "stateMutability": "nonpayable",
      "type": "function"
    },
    {
      "constant": false,
      "inputs": [
        {
          "internalType": "uint256",
          "name": "cricketId",
          "type": "uint256"
        },
        {
          "internalType": "uint256",
          "name": "dna",
          "type": "uint256"
        }
      ],
      "name": "changeDna",
      "outputs": [],
      "payable": false,
      "stateMutability": "nonpayable",
      "type": "function"
    },
    {
      "constant": true,
      "inputs": [
        {
          "internalType": "address",
          "name": "owner",
          "type": "address"
        }
      ],
      "name": "getCricketsByOwner",
      "outputs": [
        {
          "internalType": "uint256[]",
          "name": "",
          "type": "uint256[]"
        }
      ],
      "payable": false,
      "stateMutability": "view",
      "type": "function"
    },
    {
      "constant": true,
      "inputs": [
        {
          "internalType": "address",
          "name": "owner",
          "type": "address"
        }
      ],
      "name": "getCricketsOwnerNum",
      "outputs": [
        {
          "internalType": "uint256",
          "name": "",
          "type": "uint256"
        }
      ],
      "payable": false,
      "stateMutability": "view",
      "type": "function"
    },
    {
      "constant": true,
      "inputs": [
        {
          "internalType": "uint256",
          "name": "_mid",
          "type": "uint256"
        }
      ],
      "name": "getCricketsInfoById",
      "outputs": [
        {
          "internalType": "string",
          "name": "",
          "type": "string"
        },
        {
          "internalType": "uint256",
          "name": "",
          "type": "uint256"
        },
        {
          "internalType": "uint256",
          "name": "",
          "type": "uint256"
        },
        {
          "internalType": "address",
          "name": "",
          "type": "address"
        }
      ],
      "payable": false,
      "stateMutability": "view",
      "type": "function"
    },
    {
      "constant": true,
      "inputs": [],
      "name": "getCricketsNum",
      "outputs": [
        {
          "internalType": "uint256",
          "name": "",
          "type": "uint256"
        }
      ],
      "payable": false,
      "stateMutability": "view",
      "type": "function"
    },
    {
      "constant": true,
      "inputs": [
        {
          "internalType": "address",
          "name": "owner",
          "type": "address"
        }
      ],
      "name": "balanceOf",
      "outputs": [
        {
          "internalType": "uint256",
          "name": "balance",
          "type": "uint256"
        }
      ],
      "payable": false,
      "stateMutability": "view",
      "type": "function"
    },
    {
      "constant": true,
      "inputs": [
        {
          "internalType": "uint256",
          "name": "tokenId",
          "type": "uint256"
        }
      ],
      "name": "ownerOf",
      "outputs": [
        {
          "internalType": "address",
          "name": "owner",
          "type": "address"
        }
      ],
      "payable": false,
      "stateMutability": "view",
      "type": "function"
    },
    {
      "constant": false,
      "inputs": [
        {
          "internalType": "address",
          "name": "to",
          "type": "address"
        },
        {
          "internalType": "uint256",
          "name": "tokenId",
          "type": "uint256"
        }
      ],
      "name": "transfer",
      "outputs": [],
      "payable": false,
      "stateMutability": "nonpayable",
      "type": "function"
    },
    {
      "constant": false,
      "inputs": [
        {
          "internalType": "address",
          "name": "to",
          "type": "address"
        },
        {
          "internalType": "uint256",
          "name": "tokenId",
          "type": "uint256"
        }
      ],
      "name": "approve",
      "outputs": [],
      "payable": false,
      "stateMutability": "nonpayable",
      "type": "function"
    },
    {
      "constant": false,
      "inputs": [
        {
          "internalType": "uint256",
          "name": "tokenId",
          "type": "uint256"
        }
      ],
      "name": "takeOwnership",
      "outputs": [],
      "payable": false,
      "stateMutability": "nonpayable",
      "type": "function"
    },
    {
      "constant": false,
      "inputs": [
        {
          "internalType": "uint256",
          "name": "probability",
          "type": "uint256"
        }
      ],
      "name": "setAttackVictoryProbability",
      "outputs": [],
      "payable": false,
      "stateMutability": "nonpayable",
      "type": "function"
    },
    {
      "constant": false,
      "inputs": [
        {
          "internalType": "uint256",
          "name": "cricketId",
          "type": "uint256"
        },
        {
          "internalType": "uint256",
          "name": "targetId",
          "type": "uint256"
        }
      ],
      "name": "attack",
      "outputs": [],
      "payable": false,
      "stateMutability": "nonpayable",
      "type": "function"
    },
    {
      "constant": true,
      "inputs": [
        {
          "internalType": "address",
          "name": "bettor",
          "type": "address"
        }
      ],
      "name": "checkBettorExist",
      "outputs": [
        {
          "internalType": "bool",
          "name": "",
          "type": "bool"
        }
      ],
      "payable": false,
      "stateMutability": "view",
      "type": "function"
    },
    {
      "constant": false,
      "inputs": [
        {
          "internalType": "uint256",
          "name": "bettingCricketId",
          "type": "uint256"
        }
      ],
      "name": "placeBet",
      "outputs": [],
      "payable": true,
      "stateMutability": "payable",
      "type": "function"
    },
    {
      "constant": false,
      "inputs": [],
      "name": "claimBet",
      "outputs": [],
      "payable": true,
      "stateMutability": "payable",
      "type": "function"
    },
    {
      "constant": true,
      "inputs": [],
      "name": "returnSender",
      "outputs": [
        {
          "internalType": "address",
          "name": "",
          "type": "address"
        }
      ],
      "payable": false,
      "stateMutability": "view",
      "type": "function"
    }
  ],
  "bytecode": "0x60806040526010600155600154600a0a60025566038d7ea4c6800060035566038d7ea4c6800060045560006005556000600755600060085560006009556046600b55670de0b6b3a7640000600c55336000806101000a81548173ffffffffffffffffffffffffffffffffffffffff021916908373ffffffffffffffffffffffffffffffffffffffff1602179055506000809054906101000a900473ffffffffffffffffffffffffffffffffffffffff1673ffffffffffffffffffffffffffffffffffffffff16600073ffffffffffffffffffffffffffffffffffffffff167f8be0079c531659141344cd1fd0a4f28419497f9722a3daafe3b4186f6b6457e060405160405180910390a361312a806101186000396000f3fe6080604052600436106101f95760003560e01c8063805126321161010d578063c4114b12116100a0578063e0c98d021161006f578063e0c98d0214610c19578063e1fa763814610c82578063ef6f279214610cc7578063f2fde38b14610d6d578063fb0765dd14610dbe576101f9565b8063c4114b1214610ad0578063ce0a494014610afb578063da839b5214610b26578063db5ef8ad14610b51576101f9565b80638f32d59b116100dc5780638f32d59b1461097b578063a9059cbb146109aa578063b2e6ceeb14610a05578063c39cbef114610a40576101f9565b80638051263214610813578063885d44be146108ce5780638c49b0dc146108f95780638da5cb5b14610924576101f9565b80635170a9d0116101905780636535b86f1161015f5780636535b86f146106c657806365409c75146106f157806370a082311461071c578063715018a6146107815780637d79b90214610798576101f9565b80635170a9d014610574578063594455f9146105cb5780635faf2880146106065780636352211e1461064b576101f9565b806310fe7c48116101cc57806310fe7c48146102f65780631a8c05b0146103245780633482b644146104045780633507dddd1461047f576101f9565b806305854784146101fe578063095ea7b3146102635780630ce90ec2146102be5780630e02dcd6146102ec575b600080fd5b34801561020a57600080fd5b5061024d6004803603602081101561022157600080fd5b81019080803573ffffffffffffffffffffffffffffffffffffffff169060200190929190505050610de9565b6040518082815260200191505060405180910390f35b34801561026f57600080fd5b506102bc6004803603604081101561028657600080fd5b81019080803573ffffffffffffffffffffffffffffffffffffffff16906020019092919080359060200190929190505050610e32565b005b6102ea600480360360208110156102d457600080fd5b8101908080359060200190929190505050610fb7565b005b6102f4611119565b005b6103226004803603602081101561030c57600080fd5b81019080803590602001909291905050506112fe565b005b34801561033057600080fd5b5061035d6004803603602081101561034757600080fd5b8101908080359060200190929190505050611417565b60405180806020018681526020018561ffff1661ffff1681526020018461ffff1661ffff168152602001838152602001828103825287818151815260200191508051906020019080838360005b838110156103c55780820151818401526020810190506103aa565b50505050905090810190601f1680156103f25780820380516001836020036101000a031916815260200191505b50965050505050505060405180910390f35b34801561041057600080fd5b5061043d6004803603602081101561042757600080fd5b810190808035906020019092919050505061150e565b604051808273ffffffffffffffffffffffffffffffffffffffff1673ffffffffffffffffffffffffffffffffffffffff16815260200191505060405180910390f35b34801561048b57600080fd5b506104b8600480360360208110156104a257600080fd5b810190808035906020019092919050505061154a565b60405180806020018581526020018481526020018373ffffffffffffffffffffffffffffffffffffffff1673ffffffffffffffffffffffffffffffffffffffff168152602001828103825286818151815260200191508051906020019080838360005b8381101561053657808201518184015260208101905061051b565b50505050905090810190601f1680156105635780820380516001836020036101000a031916815260200191505b509550505050505060405180910390f35b34801561058057600080fd5b5061058961168c565b604051808273ffffffffffffffffffffffffffffffffffffffff1673ffffffffffffffffffffffffffffffffffffffff16815260200191505060405180910390f35b3480156105d757600080fd5b50610604600480360360208110156105ee57600080fd5b8101908080359060200190929190505050611694565b005b34801561061257600080fd5b506106496004803603604081101561062957600080fd5b8101908080359060200190929190803590602001909291905050506116af565b005b34801561065757600080fd5b506106846004803603602081101561066e57600080fd5b810190808035906020019092919050505061178f565b604051808273ffffffffffffffffffffffffffffffffffffffff1673ffffffffffffffffffffffffffffffffffffffff16815260200191505060405180910390f35b3480156106d257600080fd5b506106db6117cc565b6040518082815260200191505060405180910390f35b3480156106fd57600080fd5b506107066117d6565b6040518082815260200191505060405180910390f35b34801561072857600080fd5b5061076b6004803603602081101561073f57600080fd5b81019080803573ffffffffffffffffffffffffffffffffffffffff1690602001909291905050506117dc565b6040518082815260200191505060405180910390f35b34801561078d57600080fd5b50610796611825565b005b3480156107a457600080fd5b506107d1600480360360208110156107bb57600080fd5b81019080803590602001909291905050506118f5565b604051808273ffffffffffffffffffffffffffffffffffffffff1673ffffffffffffffffffffffffffffffffffffffff16815260200191505060405180910390f35b6108cc6004803603602081101561082957600080fd5b810190808035906020019064010000000081111561084657600080fd5b82018360208201111561085857600080fd5b8035906020019184600183028401116401000000008311171561087a57600080fd5b91908080601f016020809104026020016040519081016040528093929190818152602001838380828437600081840152601f19601f820116905080830192505050505050509192919290505050611928565b005b3480156108da57600080fd5b506108e3611a65565b6040518082815260200191505060405180910390f35b34801561090557600080fd5b5061090e611a6b565b6040518082815260200191505060405180910390f35b34801561093057600080fd5b50610939611a71565b604051808273ffffffffffffffffffffffffffffffffffffffff1673ffffffffffffffffffffffffffffffffffffffff16815260200191505060405180910390f35b34801561098757600080fd5b50610990611a9a565b604051808215151515815260200191505060405180910390f35b3480156109b657600080fd5b50610a03600480360360408110156109cd57600080fd5b81019080803573ffffffffffffffffffffffffffffffffffffffff16906020019092919080359060200190929190505050611af1565b005b348015610a1157600080fd5b50610a3e60048036036020811015610a2857600080fd5b8101908080359060200190929190505050611c20565b005b348015610a4c57600080fd5b50610ace60048036036040811015610a6357600080fd5b810190808035906020019092919080359060200190640100000000811115610a8a57600080fd5b820183602082011115610a9c57600080fd5b80359060200191846001830284011164010000000083111715610abe57600080fd5b9091929391929390505050611d3b565b005b348015610adc57600080fd5b50610ae5611e27565b6040518082815260200191505060405180910390f35b348015610b0757600080fd5b50610b10611e2d565b6040518082815260200191505060405180910390f35b348015610b3257600080fd5b50610b3b611e33565b6040518082815260200191505060405180910390f35b348015610b5d57600080fd5b50610c1760048036036020811015610b7457600080fd5b8101908080359060200190640100000000811115610b9157600080fd5b820183602082011115610ba357600080fd5b80359060200191846001830284011164010000000083111715610bc557600080fd5b91908080601f016020809104026020016040519081016040528093929190818152602001838380828437600081840152601f19601f820116905080830192505050505050509192919290505050611e39565b005b348015610c2557600080fd5b50610c6860048036036020811015610c3c57600080fd5b81019080803573ffffffffffffffffffffffffffffffffffffffff169060200190929190505050611f18565b604051808215151515815260200191505060405180910390f35b348015610c8e57600080fd5b50610cc560048036036040811015610ca557600080fd5b810190808035906020019092919080359060200190929190505050611fba565b005b348015610cd357600080fd5b50610d1660048036036020811015610cea57600080fd5b81019080803573ffffffffffffffffffffffffffffffffffffffff169060200190929190505050612581565b6040518080602001828103825283818151815260200191508051906020019060200280838360005b83811015610d59578082015181840152602081019050610d3e565b505050509050019250505060405180910390f35b348015610d7957600080fd5b50610dbc60048036036020811015610d9057600080fd5b81019080803573ffffffffffffffffffffffffffffffffffffffff1690602001909291905050506126ae565b005b348015610dca57600080fd5b50610dd36126cb565b6040518082815260200191505060405180910390f35b6000601060008373ffffffffffffffffffffffffffffffffffffffff1673ffffffffffffffffffffffffffffffffffffffff168152602001908152602001600020549050919050565b600f600082815260200190815260200160002060009054906101000a900473ffffffffffffffffffffffffffffffffffffffff1673ffffffffffffffffffffffffffffffffffffffff163373ffffffffffffffffffffffffffffffffffffffff1614610f06576040517f08c379a00000000000000000000000000000000000000000000000000000000081526004018080602001828103825260168152602001807f596f7520617265206e6f7420746865206f776e65722e0000000000000000000081525060200191505060405180910390fd5b816011600083815260200190815260200160002060006101000a81548173ffffffffffffffffffffffffffffffffffffffff021916908373ffffffffffffffffffffffffffffffffffffffff160217905550808273ffffffffffffffffffffffffffffffffffffffff163373ffffffffffffffffffffffffffffffffffffffff167f8c5be1e5ebec7d5bd14f71427d1e84f3dd0314c0f7b2291e5b200ac8c7c3b92560405160405180910390a45050565b80600f600082815260200190815260200160002060009054906101000a900473ffffffffffffffffffffffffffffffffffffffff1673ffffffffffffffffffffffffffffffffffffffff163373ffffffffffffffffffffffffffffffffffffffff161461106f576040517f08c379a000000000000000000000000000000000000000000000000000000000815260040180806020018281038252602381526020018061300d6023913960400191505060405180910390fd5b6003543410156110e7576040517f08c379a000000000000000000000000000000000000000000000000000000000815260040180806020018281038252601b8152602001807f596f75722062616c616e6365206973206e6f7420656e6f7567682e000000000081525060200191505060405180910390fd5b600e82815481106110f457fe5b9060005260206000209060040201600301600081548092919060010191905055505050565b61112233611f18565b611194576040517f08c379a000000000000000000000000000000000000000000000000000000000815260040180806020018281038252601a8152602001807f596f752068617665206e6f7420706c616365642061206265742e00000000000081525060200191505060405180910390fd5b6001151560136000601260003373ffffffffffffffffffffffffffffffffffffffff1673ffffffffffffffffffffffffffffffffffffffff16815260200190815260200160002054815260200190815260200160002060009054906101000a900460ff16151514611250576040517f08c379a000000000000000000000000000000000000000000000000000000000815260040180806020018281038252604881526020018061307c6048913960600191505060405180910390fd5b3373ffffffffffffffffffffffffffffffffffffffff166108fc600654670de0b6b3a7640000600754028161128157fe5b049081150290604051600060405180830381858888f193505050501580156112ad573d6000803e3d6000fd5b5069d3c21bcecceda1000000601260003373ffffffffffffffffffffffffffffffffffffffff1673ffffffffffffffffffffffffffffffffffffffff16815260200190815260200160002081905550565b600c54341015611359576040517f08c379a000000000000000000000000000000000000000000000000000000000815260040180806020018281038252602a815260200180613030602a913960400191505060405180910390fd5b80601260003373ffffffffffffffffffffffffffffffffffffffff1673ffffffffffffffffffffffffffffffffffffffff16815260200190815260200160002081905550600d3390806001815401808255809150509060018203906000526020600020016000909192909190916101000a81548173ffffffffffffffffffffffffffffffffffffffff021916908373ffffffffffffffffffffffffffffffffffffffff16021790555050600160086000828254019250508190555050565b600e818154811061142457fe5b9060005260206000209060040201600091509050806000018054600181600116156101000203166002900480601f0160208091040260200160405190810160405280929190818152602001828054600181600116156101000203166002900480156114d05780601f106114a5576101008083540402835291602001916114d0565b820191906000526020600020905b8154815290600101906020018083116114b357829003601f168201915b5050505050908060010154908060020160009054906101000a900461ffff16908060020160029054906101000a900461ffff16908060030154905085565b600d818154811061151b57fe5b906000526020600020016000915054906101000a900473ffffffffffffffffffffffffffffffffffffffff1681565b60606000806000600e858154811061155e57fe5b9060005260206000209060040201600001600e868154811061157c57fe5b906000526020600020906004020160010154600e878154811061159b57fe5b906000526020600020906004020160030154600f600089815260200190815260200160002060009054906101000a900473ffffffffffffffffffffffffffffffffffffffff16838054600181600116156101000203166002900480601f0160208091040260200160405190810160405280929190818152602001828054600181600116156101000203166002900480156116765780601f1061164b57610100808354040283529160200191611676565b820191906000526020600020905b81548152906001019060200180831161165957829003601f168201915b5050505050935093509350935093509193509193565b600033905090565b61169c611a9a565b6116a557600080fd5b80600b8190555050565b81600f600082815260200190815260200160002060009054906101000a900473ffffffffffffffffffffffffffffffffffffffff1673ffffffffffffffffffffffffffffffffffffffff163373ffffffffffffffffffffffffffffffffffffffff1614611767576040517f08c379a000000000000000000000000000000000000000000000000000000000815260040180806020018281038252602381526020018061300d6023913960400191505060405180910390fd5b81600e848154811061177557fe5b906000526020600020906004020160010181905550505050565b6000600f600083815260200190815260200160002060009054906101000a900473ffffffffffffffffffffffffffffffffffffffff169050919050565b6000600554905090565b60055481565b6000601060008373ffffffffffffffffffffffffffffffffffffffff1673ffffffffffffffffffffffffffffffffffffffff168152602001908152602001600020549050919050565b61182d611a9a565b61183657600080fd5b600073ffffffffffffffffffffffffffffffffffffffff166000809054906101000a900473ffffffffffffffffffffffffffffffffffffffff1673ffffffffffffffffffffffffffffffffffffffff167f8be0079c531659141344cd1fd0a4f28419497f9722a3daafe3b4186f6b6457e060405160405180910390a360008060006101000a81548173ffffffffffffffffffffffffffffffffffffffff021916908373ffffffffffffffffffffffffffffffffffffffff160217905550565b600f6020528060005260406000206000915054906101000a900473ffffffffffffffffffffffffffffffffffffffff1681565b6000601060003373ffffffffffffffffffffffffffffffffffffffff1673ffffffffffffffffffffffffffffffffffffffff16815260200190815260200160002054116119c0576040517f08c379a000000000000000000000000000000000000000000000000000000000815260040180806020018281038252602281526020018061305a6022913960400191505060405180910390fd5b600454341015611a38576040517f08c379a000000000000000000000000000000000000000000000000000000000815260040180806020018281038252601b8152602001807f596f75722062616c616e6365206973206e6f7420656e6f7567682e000000000081525060200191505060405180910390fd5b6000611a43826126d1565b90506001600a8281611a5157fe5b068203019050611a618282612762565b5050565b60065481565b600c5481565b60008060009054906101000a900473ffffffffffffffffffffffffffffffffffffffff16905090565b60008060009054906101000a900473ffffffffffffffffffffffffffffffffffffffff1673ffffffffffffffffffffffffffffffffffffffff163373ffffffffffffffffffffffffffffffffffffffff1614905090565b600f600082815260200190815260200160002060009054906101000a900473ffffffffffffffffffffffffffffffffffffffff1673ffffffffffffffffffffffffffffffffffffffff163373ffffffffffffffffffffffffffffffffffffffff161480611bbc57506011600082815260200190815260200160002060009054906101000a900473ffffffffffffffffffffffffffffffffffffffff1673ffffffffffffffffffffffffffffffffffffffff163373ffffffffffffffffffffffffffffffffffffffff16145b611c11576040517f08c379a00000000000000000000000000000000000000000000000000000000081526004018080602001828103825260328152602001806130c46032913960400191505060405180910390fd5b611c1c3383836129fd565b5050565b6011600082815260200190815260200160002060009054906101000a900473ffffffffffffffffffffffffffffffffffffffff1673ffffffffffffffffffffffffffffffffffffffff163373ffffffffffffffffffffffffffffffffffffffff1614611cf4576040517f08c379a00000000000000000000000000000000000000000000000000000000081526004018080602001828103825260158152602001807f596f7520617265206e6f7420617070726f7665642e000000000000000000000081525060200191505060405180910390fd5b6000600f600083815260200190815260200160002060009054906101000a900473ffffffffffffffffffffffffffffffffffffffff169050611d378133846129fd565b5050565b82600f600082815260200190815260200160002060009054906101000a900473ffffffffffffffffffffffffffffffffffffffff1673ffffffffffffffffffffffffffffffffffffffff163373ffffffffffffffffffffffffffffffffffffffff1614611df3576040517f08c379a000000000000000000000000000000000000000000000000000000000815260040180806020018281038252602381526020018061300d6023913960400191505060405180910390fd5b8282600e8681548110611e0257fe5b90600052602060002090600402016000019190611e20929190612ee7565b5050505050565b60035481565b60045481565b60075481565b6000601060003373ffffffffffffffffffffffffffffffffffffffff1673ffffffffffffffffffffffffffffffffffffffff1681526020019081526020016000205414611eee576040517f08c379a000000000000000000000000000000000000000000000000000000000815260040180806020018281038252601b8152602001807f596f7520616c72656164792068617665206120637269636b65742e000000000081525060200191505060405180910390fd5b6000611ef9826126d1565b9050600a8181611f0557fe5b0681039050611f148282612762565b5050565b600080600090505b600d80549050811015611faf578273ffffffffffffffffffffffffffffffffffffffff16600d8281548110611f5157fe5b9060005260206000200160009054906101000a900473ffffffffffffffffffffffffffffffffffffffff1673ffffffffffffffffffffffffffffffffffffffff161415611fa2576001915050611fb5565b8080600101915050611f20565b50600090505b919050565b81600f600082815260200190815260200160002060009054906101000a900473ffffffffffffffffffffffffffffffffffffffff1673ffffffffffffffffffffffffffffffffffffffff163373ffffffffffffffffffffffffffffffffffffffff1614612072576040517f08c379a000000000000000000000000000000000000000000000000000000000815260040180806020018281038252602381526020018061300d6023913960400191505060405180910390fd5b6000600e848154811061208157fe5b906000526020600020906004020190506000600e84815481106120a057fe5b9060005260206000209060040201905060006013600087815260200190815260200160002060006101000a81548160ff02191690831515021790555060006013600086815260200190815260200160002060006101000a81548160ff021916908315150217905550600060078190555060008090505b600d805490508110156122b7578560126000600d848154811061213557fe5b9060005260206000200160009054906101000a900473ffffffffffffffffffffffffffffffffffffffff1673ffffffffffffffffffffffffffffffffffffffff1673ffffffffffffffffffffffffffffffffffffffff168152602001908152602001600020541415801561221f57508460126000600d84815481106121b657fe5b9060005260206000200160009054906101000a900473ffffffffffffffffffffffffffffffffffffffff1673ffffffffffffffffffffffffffffffffffffffff1673ffffffffffffffffffffffffffffffffffffffff1681526020019081526020016000205414155b156122aa5769d3c21bcecceda100000060126000600d848154811061224057fe5b9060005260206000200160009054906101000a900473ffffffffffffffffffffffffffffffffffffffff1673ffffffffffffffffffffffffffffffffffffffff1673ffffffffffffffffffffffffffffffffffffffff168152602001908152602001600020819055505b8080600101915050612116565b50600082600301546122c96064612bdb565b039050600b548110156123c35782600201600081819054906101000a900461ffff168092919060010191906101000a81548161ffff021916908361ffff16021790555050826003016000815480929190600101919050555081600201600281819054906101000a900461ffff168092919060010191906101000a81548161ffff021916908361ffff16021790555050612366868360010154612c6a565b60016013600088815260200190815260200160002060006101000a81548160ff02191690831515021790555060006013600087815260200190815260200160002060006101000a81548160ff02191690831515021790555061248a565b82600201600281819054906101000a900461ffff168092919060010191906101000a81548161ffff021916908361ffff1602179055505081600201600081819054906101000a900461ffff168092919060010191906101000a81548161ffff021916908361ffff1602179055505060006013600088815260200190815260200160002060006101000a81548160ff02191690831515021790555060016013600087815260200190815260200160002060006101000a81548160ff0219169083151502179055505b600060068190555060008090505b600d8054905081101561256757600115156013600060126000600d86815481106124be57fe5b9060005260206000200160009054906101000a900473ffffffffffffffffffffffffffffffffffffffff1673ffffffffffffffffffffffffffffffffffffffff1673ffffffffffffffffffffffffffffffffffffffff16815260200190815260200160002054815260200190815260200160002060009054906101000a900460ff161515141561255a5760016006600082825401925050819055505b8080600101915050612498565b506008546007819055506000600881905550505050505050565b606080601060008473ffffffffffffffffffffffffffffffffffffffff1673ffffffffffffffffffffffffffffffffffffffff168152602001908152602001600020546040519080825280602002602001820160405280156125f25781602001602082028038833980820191505090505b509050600080905060008090505b600e805490508110156126a3578473ffffffffffffffffffffffffffffffffffffffff16600f600083815260200190815260200160002060009054906101000a900473ffffffffffffffffffffffffffffffffffffffff1673ffffffffffffffffffffffffffffffffffffffff161415612696578083838151811061268157fe5b60200260200101818152505081806001019250505b8080600101915050612600565b508192505050919050565b6126b6611a9a565b6126bf57600080fd5b6126c881612dbc565b50565b60085481565b600060025482426040516020018083805190602001908083835b6020831061270e57805182526020820191506020810190506020830392506126eb565b6001836020036101000a038019825116818451168082178552505050505050905001828152602001925050506040516020818303038152906040528051906020012060001c8161275a57fe5b069050919050565b600e6040518060a00160405280848152602001838152602001600061ffff168152602001600061ffff16815260200160018152509080600181540180825580915050906001820390600052602060002090600402016000909192909190915060008201518160000190805190602001906127dd929190612f67565b506020820151816001015560408201518160020160006101000a81548161ffff021916908361ffff16021790555060608201518160020160026101000a81548161ffff021916908361ffff1602179055506080820151816003015550505060006001600e8054905003905033600f600083815260200190815260200160002060006101000a81548173ffffffffffffffffffffffffffffffffffffffff021916908373ffffffffffffffffffffffffffffffffffffffff1602179055506128ed6001601060003373ffffffffffffffffffffffffffffffffffffffff1673ffffffffffffffffffffffffffffffffffffffff16815260200190815260200160002054612eb490919063ffffffff16565b601060003373ffffffffffffffffffffffffffffffffffffffff1673ffffffffffffffffffffffffffffffffffffffff168152602001908152602001600020819055506129466001600554612eb490919063ffffffff16565b6005819055507fbaaf1024c8247c70486e305c17b30f0271c9407a23f6e0d4c21dcd3636e5e9df8184846040518084815260200180602001838152602001828103825284818151815260200191508051906020019080838360005b838110156129bc5780820151818401526020810190506129a1565b50505050905090810190601f1680156129e95780820380516001836020036101000a031916815260200191505b5094505050505060405180910390a1505050565b612a506001601060008573ffffffffffffffffffffffffffffffffffffffff1673ffffffffffffffffffffffffffffffffffffffff16815260200190815260200160002054612eb490919063ffffffff16565b601060008473ffffffffffffffffffffffffffffffffffffffff1673ffffffffffffffffffffffffffffffffffffffff16815260200190815260200160002081905550612ae66001601060008673ffffffffffffffffffffffffffffffffffffffff1673ffffffffffffffffffffffffffffffffffffffff16815260200190815260200160002054612ed090919063ffffffff16565b601060008573ffffffffffffffffffffffffffffffffffffffff1673ffffffffffffffffffffffffffffffffffffffff1681526020019081526020016000208190555081600f600083815260200190815260200160002060006101000a81548173ffffffffffffffffffffffffffffffffffffffff021916908373ffffffffffffffffffffffffffffffffffffffff160217905550808273ffffffffffffffffffffffffffffffffffffffff168473ffffffffffffffffffffffffffffffffffffffff167fddf252ad1be2c89b69c2b068fc378daa952ba7f163c4a11628f55a4df523b3ef60405160405180910390a4505050565b6000600960008154809291906001019190505550814233600954604051602001808481526020018373ffffffffffffffffffffffffffffffffffffffff1673ffffffffffffffffffffffffffffffffffffffff1660601b815260140182815260200193505050506040516020818303038152906040528051906020012060001c81612c6257fe5b069050919050565b81600f600082815260200190815260200160002060009054906101000a900473ffffffffffffffffffffffffffffffffffffffff1673ffffffffffffffffffffffffffffffffffffffff163373ffffffffffffffffffffffffffffffffffffffff1614612d22576040517f08c379a000000000000000000000000000000000000000000000000000000000815260040180806020018281038252602381526020018061300d6023913960400191505060405180910390fd5b6000600e8481548110612d3157fe5b906000526020600020906004020190506002548381612d4c57fe5b069250600060028483600101540181612d6157fe5b0490506009600a8281612d7057fe5b068203019050612db56040518060400160405280600b81526020017f4e65775f437269636b657400000000000000000000000000000000000000000081525082612762565b5050505050565b600073ffffffffffffffffffffffffffffffffffffffff168173ffffffffffffffffffffffffffffffffffffffff161415612df657600080fd5b8073ffffffffffffffffffffffffffffffffffffffff166000809054906101000a900473ffffffffffffffffffffffffffffffffffffffff1673ffffffffffffffffffffffffffffffffffffffff167f8be0079c531659141344cd1fd0a4f28419497f9722a3daafe3b4186f6b6457e060405160405180910390a3806000806101000a81548173ffffffffffffffffffffffffffffffffffffffff021916908373ffffffffffffffffffffffffffffffffffffffff16021790555050565b600080828401905083811015612ec657fe5b8091505092915050565b600082821115612edc57fe5b818303905092915050565b828054600181600116156101000203166002900490600052602060002090601f016020900481019282601f10612f2857803560ff1916838001178555612f56565b82800160010185558215612f56579182015b82811115612f55578235825591602001919060010190612f3a565b5b509050612f639190612fe7565b5090565b828054600181600116156101000203166002900490600052602060002090601f016020900481019282601f10612fa857805160ff1916838001178555612fd6565b82800160010185558215612fd6579182015b82811115612fd5578251825591602001919060010190612fba565b5b509050612fe39190612fe7565b5090565b61300991905b80821115613005576000816000905550600101612fed565b5090565b9056fe5468697320637269636b657420646f65736e27742062656c6f6e6720746f20796f752e596f7572206163636f756e742062616c616e636520697320736d616c6c6572207468616e203120455448596f752063616e20637265617465206120637269636b657420666f7220667265652e54686520637269636b657420796f7520626574206f6e206c6f7374203a282c206f7220796f75206861766520616c726561647920636c61696d656420796f75722072657761726421596f7520617265206e65697468657220746865206f776e6572206e6f7220616e20617070726f76656420616464726573732ea265627a7a72315820bc84838093865ea847c79e6b92b202376e13a4325797e19a8bd10ce4dec474b264736f6c63430005100032",
  "source": "pragma solidity >=0.4.21 <0.9.0;\r\nimport \"./Ownable.sol\";\r\nimport \"./SafeMath.sol\";\r\nimport \"./ERC721.sol\";\r\ncontract CricketContract is Ownable,ERC721 { \r\n    using SafeMath for uint256;\r\n\r\n\r\n    // dna settings\r\n    uint dnaDigits = 16;\r\n    uint dnaModulus = 10 ** dnaDigits;\r\n    uint public levelUpFee = 0.001 ether;\r\n    uint public cricketPrice = 0.001 ether;\r\n    uint public cricketCount = 0;\r\n    uint public winningBettorCount;\r\n    uint public roundBettorCount_temp = 0;\r\n    uint public roundBettorCount = 0;\r\n\r\n\r\n    // Nonce\r\n    uint randNonce = 0;\r\n\r\n    uint bettingWinnerCount;\r\n\r\n    // VictoryProbability\r\n    uint attackVictoryProbability = 70;\r\n\r\n\r\n    // Betting Stake\r\n    uint public bettingStake = 1 ether;\r\n\r\n\r\n    // Cricket Structure\r\n    struct Cricket {\r\n        string name;\r\n        uint dna;\r\n        uint16 winCount;\r\n        uint16 lossCount;\r\n        uint level;\r\n    } \r\n\r\n    // Bettor list\r\n    address[] public bettors;\r\n\r\n\r\n    // Cricket Set\r\n    Cricket[] public crickets;\r\n\r\n\r\n    // ID => Address Mapping\r\n    mapping (uint => address) public cricketToOwner;\r\n\r\n\r\n    // Address => Cricket Count Mapping\r\n    mapping (address => uint) ownerCricketCount;\r\n\r\n\r\n    // ID => Approved Addresses\r\n    mapping (uint => address) cricketApprovals;\r\n\r\n    // Address => Cricket ID it's betting on\r\n    mapping (address => uint) bettingPool;\r\n\r\n    // Cricket ID => Battle Result\r\n    mapping (uint => bool) lastBattle;\r\n\r\n\r\n\r\n    // Check if sender is cricket owner\r\n    modifier onlyOwnerOf(uint cricketId) {\r\n        require(msg.sender == cricketToOwner[cricketId], \"This cricket doesn't belong to you.\");\r\n        _;\r\n    }\r\n\r\n\r\n     // New Cricket Created Event\r\n     event NewCricket(uint cricketId, string name, uint dna);\r\n\r\n     function createRandomCricket(string memory name) public {\r\n        // Check if the address already have cricket, if have, prompt 'you already have a cricket'\r\n        require(ownerCricketCount[msg.sender] == 0, \"You already have a cricket.\");\r\n        uint randomDna = _generateRandomDna(name);\r\n        randomDna = randomDna - randomDna % 10; // Mark last dna digit to 0, marked as free cricket\r\n        _createCricket(name, randomDna);\r\n    }\r\n\r\n\r\n        // Purchase random cricket\r\n    function buyRandomCricket(string memory name) public payable {\r\n        // Check if the address already have cricket, if no, prompt 'you can create a cricket for free'\r\n        require(ownerCricketCount[msg.sender] > 0, \"You can create a cricket for free.\");\r\n        // Check if user sent enough money for the cricket, if not, prompt 'Your balance is not enough'\r\n        require(msg.value >= cricketPrice, \"Your balance is not enough.\");\r\n        uint randomDna = _generateRandomDna(name);\r\n        randomDna = randomDna - randomDna % 10 + 1; // Mark last dna digit to 1, marked as paid cricket\r\n        _createCricket(name, randomDna);\r\n    }\r\n\r\n\r\n       // Pseudo Random dna generation\r\n    function _generateRandomDna(string memory name) private view returns (uint) {\r\n        return uint(keccak256(abi.encodePacked(name, block.timestamp))) % dnaModulus;\r\n    }\r\n\r\n\r\n        // Cricket Creation function\r\n    function _createCricket(string memory name, uint dna) internal  {\r\n        // Generate a cricket\r\n        crickets.push(Cricket(name, dna, 0, 0, 1));\r\n        uint cricketId = crickets.length - 1;\r\n        // Set the owner\r\n        cricketToOwner[cricketId] = msg.sender;\r\n        ownerCricketCount[msg.sender] = ownerCricketCount[msg.sender].add(1);\r\n        cricketCount = cricketCount.add(1);\r\n        // Emit the event\r\n        emit NewCricket(cricketId, name, dna);\r\n    }\r\n\r\n\r\n\r\n    // Helper functions\r\n\r\n\r\n    // Paid level up\r\n        function levelUp(uint cricketId) external payable onlyOwnerOf(cricketId){\r\n        require(msg.value >= levelUpFee, \"Your balance is not enough.\");\r\n        crickets[cricketId].level++;\r\n    }\r\n    // Name changing function (Only owner can change)\r\n        function changeName(uint cricketId, string calldata name) external onlyOwnerOf(cricketId) {\r\n        crickets[cricketId].name = name;\r\n    }\r\n    // DNA changing function (Only owner can change)\r\n    function changeDna(uint cricketId, uint dna) external onlyOwnerOf(cricketId) {\r\n        crickets[cricketId].dna = dna;\r\n    }\r\n\r\n\r\n       // Acquire a list of cricket ids owned by a specific address\r\n    function getCricketsByOwner(address owner) external view returns (uint[] memory) {\r\n        uint[] memory result = new uint[](ownerCricketCount[owner]);\r\n        uint counter = 0;\r\n        for (uint i = 0; i < crickets.length; i++) {\r\n            if (cricketToOwner[i] == owner) {\r\n                result[counter] = i;\r\n                counter++;\r\n            }\r\n        }\r\n        return result;\r\n    }\r\n\r\n\r\n\r\n    // Acquire specific address's cricket count\r\n        function getCricketsOwnerNum(address owner) external view returns (uint) {\r\n            return ownerCricketCount[owner];\r\n    }\r\n\r\n\r\n\r\n    // Acquire cricket name and dna by id\r\n        function getCricketsInfoById(uint _mid) view public returns(string memory,uint,uint,address) {  \r\n        return (crickets[_mid].name,crickets[_mid].dna,crickets[_mid].level,cricketToOwner[_mid]);\r\n    }\r\n            function getCricketsNum() public view returns (uint) {\r\n            return cricketCount;\r\n    }\r\n\r\n    \r\n    // For new cricket created in battle\r\n    function _multiply(uint cricketId, uint targetDna) internal onlyOwnerOf(cricketId) {\r\n        Cricket storage cricket = crickets[cricketId];\r\n        // newDna = (cricket dna + targetDna)/2\r\n        targetDna = targetDna % dnaModulus; // Make sure targetDna fits the same format\r\n        uint newDna = (cricket.dna + targetDna) / 2;\r\n        newDna = newDna - newDna % 10 + 9; // Mark last dna digit to 9, marked as battle generated cricket\r\n        _createCricket(\"New_Cricket\", newDna);\r\n    }\r\n\r\n\r\n    \r\n    // Ownership functions\r\n\r\n\r\n    // With address returns cricket count\r\n    function balanceOf(address owner) external view  returns (uint256 balance) {\r\n        return ownerCricketCount[owner];\r\n    }\r\n    \r\n   // With cricket id returns owning address\r\n    function ownerOf(uint256 tokenId) external view  returns (address owner) {\r\n        return cricketToOwner[tokenId];\r\n    }\r\n\r\n    // Cricket transfer\r\n    function transfer(address to, uint256 tokenId) external  {\r\n        // Check if sender is cricket owner or approved address, if not, prompt 'You are neither the owner nor an approved address'\r\n        require(msg.sender == cricketToOwner[tokenId] || msg.sender == cricketApprovals[tokenId] , \"You are neither the owner nor an approved address.\");\r\n        _transfer(msg.sender, to, tokenId);\r\n    }\r\n\r\n    // Approve address \r\n    function approve(address to, uint256 tokenId) external {\r\n        // Check if sender is cricket owner first, if not, prompt 'You are not the owner'\r\n        require(msg.sender == cricketToOwner[tokenId], \"You are not the owner.\");\r\n        cricketApprovals[tokenId] = to;\r\n        emit Approval(msg.sender, to, tokenId);\r\n    }\r\n\r\n    // Ownership taking\r\n    function takeOwnership(uint256 tokenId) external  {\r\n        // Check if sender is an approved address, if not, prompt 'You are not approved'\r\n        require(msg.sender == cricketApprovals[tokenId], \"You are not approved.\");\r\n        address owner = cricketToOwner[tokenId];\r\n        _transfer(owner, msg.sender, tokenId);\r\n    }\r\n\r\n\r\n    // Cricket transfer internal function\r\n     function _transfer(address from, address to, uint tokenId) internal {\r\n        ownerCricketCount[to] = ownerCricketCount[to].add(1);\r\n        ownerCricketCount[from] = ownerCricketCount[from].sub(1);\r\n        cricketToOwner[tokenId] = to;\r\n        emit Transfer(from, to, tokenId);\r\n    }\r\n\r\n\r\n    // Battle funcitons\r\n\r\n    // Pseudo random number generator\r\n    function randMod(uint modulus) internal returns (uint) {\r\n        randNonce++;\r\n        return uint(keccak256(abi.encodePacked(block.timestamp, msg.sender, randNonce))) % modulus;\r\n    }\r\n\r\n    // Set attack victory probability\r\n    function setAttackVictoryProbability(uint probability) external onlyOwner {\r\n        attackVictoryProbability = probability;\r\n    }\r\n\r\n    // Attack\r\n    function attack(uint cricketId, uint targetId) external onlyOwnerOf(cricketId) {\r\n        Cricket storage myCricket = crickets[cricketId];\r\n        Cricket storage enemyCricket = crickets[targetId];\r\n        // Flush lastBattle\r\n        lastBattle[cricketId] = false;\r\n        lastBattle[targetId] = false;\r\n\r\n        // Flush betting round\r\n        roundBettorCount_temp = 0;\r\n\r\n        // Flush bettingPool\r\n        for (uint256 i = 0; i < bettors.length; i++) {\r\n            // If the bettor is betting on non of the battling cricket, he's betting on cricket number 1000000000000000000000000\r\n            if(bettingPool[bettors[i]] != cricketId && bettingPool[bettors[i]] != targetId) {\r\n                // I don't think we'll have 1000000000000000000000000 crickets within 100 year's time\r\n                bettingPool[bettors[i]] = 1000000000000000000000000;\r\n            }\r\n        }\r\n\r\n\r\n        // Generate random number as determinant for this specific battle\r\n        uint rand = randMod(100)-myCricket.level; // Higher the level, smaller the rand, more likely to win\r\n        if (rand < attackVictoryProbability) {\r\n            // Win\r\n            myCricket.winCount++;\r\n            myCricket.level++;\r\n            enemyCricket.lossCount++;\r\n            _multiply(cricketId, enemyCricket.dna);\r\n            lastBattle[cricketId] = true; // Record battle result in lastBattle\r\n            lastBattle[targetId] = false;\r\n        } else {\r\n            // Loss\r\n            myCricket.lossCount++;\r\n            enemyCricket.winCount++;\r\n            lastBattle[cricketId] = false; // Record battle result in lastBattle\r\n            lastBattle[targetId] = true;\r\n\r\n        }\r\n\r\n        winningBettorCount = 0;\r\n        // Track how many bettors won\r\n        for (uint256 i = 0; i < bettors.length; i++){\r\n            if(lastBattle[bettingPool[bettors[i]]] == true) {\r\n                winningBettorCount += 1;\r\n            }\r\n        }\r\n        // Reset betting round\r\n        roundBettorCount_temp = roundBettorCount;\r\n        roundBettorCount = 0;\r\n\r\n    }\r\n\r\n\r\n    // Betting\r\n\r\n    function checkBettorExist(address bettor) public view returns (bool) {\r\n        for (uint256 i = 0; i < bettors.length; i++) {\r\n            if(bettors[i] == bettor) return true;\r\n        }\r\n        return false;\r\n    }\r\n\r\n\r\n    function placeBet(uint bettingCricketId) external payable {\r\n        require(msg.value >= bettingStake, 'Your account balance is smaller than 1 ETH');\r\n        bettingPool[msg.sender] = bettingCricketId;\r\n        bettors.push(msg.sender);\r\n        roundBettorCount += 1;\r\n    }\r\n\r\n    function claimBet() payable public {\r\n        require(checkBettorExist(msg.sender), 'You have not placed a bet.');\r\n        require(lastBattle[bettingPool[msg.sender]] == true, 'The cricket you bet on lost :(, or you have already claimed your reward!');\r\n        // Distribute\r\n        msg.sender.transfer(roundBettorCount_temp * 1 ether / winningBettorCount);\r\n\r\n        // Make sure you can only claim once\r\n        bettingPool[msg.sender] = 1000000000000000000000000;\r\n    }\r\n\r\n\r\n\r\n\r\n        // Return sender\r\n    function returnSender() public view returns (address) {\r\n        return msg.sender;\r\n    }\r\n\r\n}",
  "sourcePath": "/Users/liuyuxiang/Downloads/FYP/cricket/contracts/CricketContract.sol",
  "compiler": {
    "name": "solc",
    "version": "0.5.16+commit.9c3226ce.Emscripten.clang"
  },
  "schemaVersion": "3.4.3",
  "updatedAt": "2021-12-06T13:31:58.689Z",
  "networkType": "ethereum",
  "devdoc": {
    "methods": {}
  },
  "userdoc": {
    "methods": {}
  }
}